:1000000001308A006E290000FF00030E8301A10069
:100010000A08A0008A010408A2007708A300780853
:10002000A4007908A5007A08A600831383120B1E8A
:100030001B288B182C28220884002308F70024088A
:10004000F8002508F9002608FA0020088A00210E89
:100050008300FF0E7F0E09008A110A12D4280A10AD
:100060008A100A11820728340C34013406342A30ED
:10007000840083130008031943285230F700F70B5C
:100080003F28800B3D280800350EF039F7000F306F
:100090000805770488000000081408100800080804
:1000A000F700080E0F39F8000800831608108810B2
:1000B0000811831288100F3083160805F038880065
:1000C000831208150000081400004F207808B500BE
:1000D0000810000008144F207808B40008100F30F2
:1000E0008316080588008312350EF700F030F705F7
:1000F00077083404F8007808B400B41B5B28321C7D
:100100008810321888140000081100000810330EFF
:10011000B4000F30B4053408B500442033080F395B
:10012000B400B500442008002F0B97289A284030CF
:10013000B0009B28B00101302E02B0073008803893
:10014000B100B2013108B300552008002D08073A6C
:100150000319B4280B3A0319B928063A0319C3281E
:10016000023A0319C928CE280130AE00AF0094200E
:10017000D328B2010130B3005520A630F700F70BA9
:10018000BF280000D3280130AE000230AF00942019
:10019000D328B2011030B3005520D3280130B2006B
:1001A0002D08B300552008000F308316080588007D
:1001B00008108810081183128810081108100F30D9
:1001C000AA0037200130A9002908033C031CF028AD
:1001D0000330B50044200530AA003720A90AE428DE
:1001E0000230B50044200530AA003720A9012908B3
:1001F000033C031C042929082F20AA00B2012A0865
:10020000B3005520A90AF7280C30AD00A6206530B0
:1002100003178D0001308F0003130B08A9008B1307
:10022000831603178C170C140000000083120C08AF
:100230007F39031954290313AA0003170D08031368
:10024000AB0003170F080313AC002A08AD00A6206B
:100250002B0803178D0003132C0803178F00831638
:100260008C170C140000000083120C0D0E0D7F394A
:10027000031954290313AA0003170D080313AB0035
:1002800003170F080313AC002A08AD00A6202B08A3
:1002900003178D0003132C0803178F008D0A031911
:1002A0008F0A0313102903170313A91B8B1704309C
:1002B000A900FA30AA003720A90B59290C30AD004B
:1002C000A6208B108A110A121B28EB32F336651018
:1002D0006F36F539F43A20172E1700008401831386
:1002E0001F30830583161F149F141F159F1183123F
:1002F0000B16C0308B048316881183128815A70152
:100300008B1BA7178B136430AA003720A71B8B17F2
:100310008316881183128811A7018B1BA7178B13D3
:100320006430AA003720A71B8B177B29962963000E
:02400E00713F00
:00000001FF
;PIC16F877
;CRC=34E4  CREATED="26-Nis-14 21:44"
